{
  "_format": "hh-sol-artifact-1",
  "contractName": "CryptoTaxi",
  "sourceName": "contracts/contracts/CryptoTaxi.sol",
  "abi": [
    {
      "inputs": [],
      "stateMutability": "nonpayable",
      "type": "constructor"
    },
    {
      "anonymous": false,
      "inputs": [
        {
          "indexed": true,
          "internalType": "address",
          "name": "_address",
          "type": "address"
        }
      ],
      "name": "DriverRegistration",
      "type": "event"
    },
    {
      "anonymous": false,
      "inputs": [
        {
          "indexed": true,
          "internalType": "address",
          "name": "_address",
          "type": "address"
        }
      ],
      "name": "PassengerRegistration",
      "type": "event"
    },
    {
      "stateMutability": "payable",
      "type": "fallback"
    },
    {
      "inputs": [
        {
          "internalType": "address",
          "name": "",
          "type": "address"
        }
      ],
      "name": "Drivers",
      "outputs": [
        {
          "internalType": "address payable",
          "name": "driverAddr",
          "type": "address"
        }
      ],
      "stateMutability": "view",
      "type": "function"
    },
    {
      "inputs": [
        {
          "internalType": "address",
          "name": "",
          "type": "address"
        }
      ],
      "name": "Passengers",
      "outputs": [
        {
          "internalType": "address payable",
          "name": "passengerAddr",
          "type": "address"
        }
      ],
      "stateMutability": "view",
      "type": "function"
    },
    {
      "inputs": [
        {
          "internalType": "string",
          "name": "",
          "type": "string"
        }
      ],
      "name": "Rides",
      "outputs": [
        {
          "internalType": "string",
          "name": "id",
          "type": "string"
        },
        {
          "internalType": "string",
          "name": "passengerId",
          "type": "string"
        },
        {
          "internalType": "string",
          "name": "driverId",
          "type": "string"
        },
        {
          "internalType": "address payable",
          "name": "passengerAddr",
          "type": "address"
        },
        {
          "internalType": "address payable",
          "name": "driverAddr",
          "type": "address"
        },
        {
          "components": [
            {
              "internalType": "string",
              "name": "longitude",
              "type": "string"
            },
            {
              "internalType": "string",
              "name": "latitude",
              "type": "string"
            },
            {
              "internalType": "string",
              "name": "name",
              "type": "string"
            }
          ],
          "internalType": "struct CryptoTaxi.Location",
          "name": "pickupLocation",
          "type": "tuple"
        },
        {
          "components": [
            {
              "internalType": "string",
              "name": "longitude",
              "type": "string"
            },
            {
              "internalType": "string",
              "name": "latitude",
              "type": "string"
            },
            {
              "internalType": "string",
              "name": "name",
              "type": "string"
            }
          ],
          "internalType": "struct CryptoTaxi.Location",
          "name": "dropLocation",
          "type": "tuple"
        },
        {
          "internalType": "uint256",
          "name": "rideCost",
          "type": "uint256"
        },
        {
          "internalType": "string",
          "name": "codePIN",
          "type": "string"
        }
      ],
      "stateMutability": "view",
      "type": "function"
    },
    {
      "inputs": [
        {
          "internalType": "address payable",
          "name": "_passengerAddr",
          "type": "address"
        }
      ],
      "name": "cancelRide",
      "outputs": [
        {
          "internalType": "bool",
          "name": "",
          "type": "bool"
        }
      ],
      "stateMutability": "nonpayable",
      "type": "function"
    },
    {
      "inputs": [],
      "name": "driverConfirmation",
      "outputs": [],
      "stateMutability": "payable",
      "type": "function"
    },
    {
      "inputs": [
        {
          "internalType": "string",
          "name": "id",
          "type": "string"
        }
      ],
      "name": "driverPunishment",
      "outputs": [],
      "stateMutability": "nonpayable",
      "type": "function"
    },
    {
      "inputs": [],
      "name": "getCryptoTaxiBalance",
      "outputs": [
        {
          "internalType": "uint256",
          "name": "",
          "type": "uint256"
        }
      ],
      "stateMutability": "view",
      "type": "function"
    },
    {
      "inputs": [
        {
          "internalType": "string",
          "name": "id",
          "type": "string"
        }
      ],
      "name": "getRideInfo",
      "outputs": [
        {
          "components": [
            {
              "internalType": "string",
              "name": "id",
              "type": "string"
            },
            {
              "internalType": "string",
              "name": "passengerId",
              "type": "string"
            },
            {
              "internalType": "string",
              "name": "driverId",
              "type": "string"
            },
            {
              "internalType": "address payable",
              "name": "passengerAddr",
              "type": "address"
            },
            {
              "internalType": "address payable",
              "name": "driverAddr",
              "type": "address"
            },
            {
              "components": [
                {
                  "internalType": "string",
                  "name": "longitude",
                  "type": "string"
                },
                {
                  "internalType": "string",
                  "name": "latitude",
                  "type": "string"
                },
                {
                  "internalType": "string",
                  "name": "name",
                  "type": "string"
                }
              ],
              "internalType": "struct CryptoTaxi.Location",
              "name": "pickupLocation",
              "type": "tuple"
            },
            {
              "components": [
                {
                  "internalType": "string",
                  "name": "longitude",
                  "type": "string"
                },
                {
                  "internalType": "string",
                  "name": "latitude",
                  "type": "string"
                },
                {
                  "internalType": "string",
                  "name": "name",
                  "type": "string"
                }
              ],
              "internalType": "struct CryptoTaxi.Location",
              "name": "dropLocation",
              "type": "tuple"
            },
            {
              "internalType": "uint256",
              "name": "rideCost",
              "type": "uint256"
            },
            {
              "internalType": "string",
              "name": "codePIN",
              "type": "string"
            }
          ],
          "internalType": "struct CryptoTaxi.Ride",
          "name": "",
          "type": "tuple"
        }
      ],
      "stateMutability": "view",
      "type": "function"
    },
    {
      "inputs": [
        {
          "internalType": "address",
          "name": "",
          "type": "address"
        }
      ],
      "name": "inserted",
      "outputs": [
        {
          "internalType": "bool",
          "name": "",
          "type": "bool"
        }
      ],
      "stateMutability": "view",
      "type": "function"
    },
    {
      "inputs": [
        {
          "internalType": "address",
          "name": "",
          "type": "address"
        }
      ],
      "name": "insertedPassenger",
      "outputs": [
        {
          "internalType": "bool",
          "name": "",
          "type": "bool"
        }
      ],
      "stateMutability": "view",
      "type": "function"
    },
    {
      "inputs": [
        {
          "internalType": "string",
          "name": "",
          "type": "string"
        }
      ],
      "name": "insertedRide",
      "outputs": [
        {
          "internalType": "bool",
          "name": "",
          "type": "bool"
        }
      ],
      "stateMutability": "view",
      "type": "function"
    },
    {
      "inputs": [
        {
          "internalType": "uint256",
          "name": "",
          "type": "uint256"
        }
      ],
      "name": "keys",
      "outputs": [
        {
          "internalType": "address payable",
          "name": "",
          "type": "address"
        }
      ],
      "stateMutability": "view",
      "type": "function"
    },
    {
      "inputs": [],
      "name": "owner",
      "outputs": [
        {
          "internalType": "address payable",
          "name": "",
          "type": "address"
        }
      ],
      "stateMutability": "view",
      "type": "function"
    },
    {
      "inputs": [
        {
          "internalType": "string",
          "name": "id",
          "type": "string"
        }
      ],
      "name": "passengerArrivation",
      "outputs": [],
      "stateMutability": "payable",
      "type": "function"
    },
    {
      "inputs": [
        {
          "internalType": "string",
          "name": "id",
          "type": "string"
        }
      ],
      "name": "passengerPaymentAndConfirmation",
      "outputs": [],
      "stateMutability": "payable",
      "type": "function"
    },
    {
      "inputs": [
        {
          "internalType": "address payable",
          "name": "passengerAddr",
          "type": "address"
        },
        {
          "internalType": "uint256",
          "name": "amount",
          "type": "uint256"
        }
      ],
      "name": "passengerPaymentRefund",
      "outputs": [],
      "stateMutability": "nonpayable",
      "type": "function"
    },
    {
      "inputs": [
        {
          "internalType": "string",
          "name": "id",
          "type": "string"
        }
      ],
      "name": "passengerPunishment",
      "outputs": [],
      "stateMutability": "nonpayable",
      "type": "function"
    },
    {
      "inputs": [
        {
          "internalType": "uint256",
          "name": "",
          "type": "uint256"
        }
      ],
      "name": "passengersKeys",
      "outputs": [
        {
          "internalType": "address payable",
          "name": "",
          "type": "address"
        }
      ],
      "stateMutability": "view",
      "type": "function"
    },
    {
      "inputs": [],
      "name": "registerDriver",
      "outputs": [],
      "stateMutability": "nonpayable",
      "type": "function"
    },
    {
      "inputs": [],
      "name": "registerPassenger",
      "outputs": [],
      "stateMutability": "nonpayable",
      "type": "function"
    },
    {
      "inputs": [
        {
          "internalType": "string",
          "name": "id",
          "type": "string"
        },
        {
          "internalType": "string",
          "name": "_pickupLocation_longitude",
          "type": "string"
        },
        {
          "internalType": "string",
          "name": "_pickupLocation_latitude",
          "type": "string"
        },
        {
          "internalType": "string",
          "name": "_dropLocation_longitude",
          "type": "string"
        },
        {
          "internalType": "string",
          "name": "_dropLocation_latitude",
          "type": "string"
        },
        {
          "internalType": "string",
          "name": "_passengerId",
          "type": "string"
        },
        {
          "internalType": "string",
          "name": "_driverId",
          "type": "string"
        },
        {
          "internalType": "address payable",
          "name": "_passengerAddr",
          "type": "address"
        },
        {
          "internalType": "address payable",
          "name": "_driverAddr",
          "type": "address"
        },
        {
          "internalType": "uint256",
          "name": "_rideCost",
          "type": "uint256"
        },
        {
          "internalType": "string",
          "name": "_codePIN",
          "type": "string"
        }
      ],
      "name": "requestRide",
      "outputs": [],
      "stateMutability": "nonpayable",
      "type": "function"
    },
    {
      "inputs": [
        {
          "internalType": "uint256",
          "name": "",
          "type": "uint256"
        }
      ],
      "name": "ridesKeys",
      "outputs": [
        {
          "internalType": "string",
          "name": "",
          "type": "string"
        }
      ],
      "stateMutability": "view",
      "type": "function"
    },
    {
      "inputs": [
        {
          "internalType": "address payable",
          "name": "_driverAddr",
          "type": "address"
        },
        {
          "internalType": "string",
          "name": "_rideId",
          "type": "string"
        }
      ],
      "name": "updateDriverRides",
      "outputs": [],
      "stateMutability": "nonpayable",
      "type": "function"
    },
    {
      "inputs": [
        {
          "internalType": "address payable",
          "name": "_passengerAddr",
          "type": "address"
        },
        {
          "internalType": "string",
          "name": "_rideId",
          "type": "string"
        }
      ],
      "name": "updatePassengerRides",
      "outputs": [],
      "stateMutability": "nonpayable",
      "type": "function"
    },
    {
      "stateMutability": "payable",
      "type": "receive"
    }
  ],
  "bytecode": "0x608060405234801561001057600080fd5b50336000806101000a81548173ffffffffffffffffffffffffffffffffffffffff021916908373ffffffffffffffffffffffffffffffffffffffff1602179055506136cb806100606000396000f3fe60806040526004361061014f5760003560e01c80637893ed07116100b6578063e2436f851161006f578063e2436f851461047a578063e9bf0540146104bf578063ece0253b146104e8578063f8a4b42514610525578063fc6cbf7814610562578063fd12c5921461057e57610156565b80637893ed071461037b5780637cd380f1146103a45780637d63d299146103e15780638da5cb5b1461040a57806396fa43d014610435578063d23bfe431461045157610156565b8063421a99e711610108578063421a99e71461025257806346f7991b1461027d5780634b1d0154146102ba5780635c28729a146102f75780636c36b09f146103345780637852dc3b1461037157610156565b80630cb6aaf11461015857806310901c2b1461019557806316e21901146101ac57806327a212ca146101c357806337af6325146102005780633a99f65e1461022957610156565b3661015657005b005b34801561016457600080fd5b5061017f600480360381019061017a9190612836565b6105bb565b60405161018c91906128a4565b60405180910390f35b3480156101a157600080fd5b506101aa6105fa565b005b3480156101b857600080fd5b506101c1610861565b005b3480156101cf57600080fd5b506101ea60048036038101906101e59190612a05565b610ac8565b6040516101f79190612c3a565b60405180910390f35b34801561020c57600080fd5b5061022760048036038101906102229190612c88565b611193565b005b34801561023557600080fd5b50610250600480360381019061024b9190612ce4565b611213565b005b34801561025e57600080fd5b506102676112c4565b6040516102749190612d33565b60405180910390f35b34801561028957600080fd5b506102a4600480360381019061029f9190612836565b6112cc565b6040516102b19190612d98565b60405180910390f35b3480156102c657600080fd5b506102e160048036038101906102dc9190612dba565b611378565b6040516102ee9190612e02565b60405180910390f35b34801561030357600080fd5b5061031e60048036038101906103199190612a05565b611443565b60405161032b9190612e02565b60405180910390f35b34801561034057600080fd5b5061035b60048036038101906103569190612e5b565b611479565b6040516103689190612e02565b60405180910390f35b610379611499565b005b34801561038757600080fd5b506103a2600480360381019061039d9190612c88565b6114df565b005b3480156103b057600080fd5b506103cb60048036038101906103c69190612e5b565b61155f565b6040516103d89190612e02565b60405180910390f35b3480156103ed57600080fd5b5061040860048036038101906104039190612e88565b61157f565b005b34801561041657600080fd5b5061041f611964565b60405161042c91906128a4565b60405180910390f35b61044f600480360381019061044a9190612a05565b611988565b005b34801561045d57600080fd5b5061047860048036038101906104739190612a05565b6119fb565b005b34801561048657600080fd5b506104a1600480360381019061049c9190612a05565b611b1a565b6040516104b6999897969594939291906130ba565b60405180910390f35b3480156104cb57600080fd5b506104e660048036038101906104e19190612a05565b61215e565b005b3480156104f457600080fd5b5061050f600480360381019061050a9190612836565b61236d565b60405161051c91906128a4565b60405180910390f35b34801561053157600080fd5b5061054c60048036038101906105479190612e5b565b6123ac565b60405161055991906128a4565b60405180910390f35b61057c60048036038101906105779190612a05565b6123ea565b005b34801561058a57600080fd5b506105a560048036038101906105a09190612e5b565b612626565b6040516105b291906128a4565b60405180910390f35b600681815481106105cb57600080fd5b906000526020600020016000915054906101000a900473ffffffffffffffffffffffffffffffffffffffff1681565b33600260008273ffffffffffffffffffffffffffffffffffffffff1673ffffffffffffffffffffffffffffffffffffffff16815260200190815260200160002060009054906101000a900460ff1661070c576003819080600181540180825580915050600190039060005260206000200160009091909190916101000a81548173ffffffffffffffffffffffffffffffffffffffff021916908373ffffffffffffffffffffffffffffffffffffffff1602179055506001600260008373ffffffffffffffffffffffffffffffffffffffff1673ffffffffffffffffffffffffffffffffffffffff16815260200190815260200160002060006101000a81548160ff02191690831515021790555061079a565b600260008273ffffffffffffffffffffffffffffffffffffffff1673ffffffffffffffffffffffffffffffffffffffff16815260200190815260200160002060009054906101000a900460ff1615610799576040517f08c379a0000000000000000000000000000000000000000000000000000000008152600401610790906131bd565b60405180910390fd5b5b33600160003373ffffffffffffffffffffffffffffffffffffffff1673ffffffffffffffffffffffffffffffffffffffff16815260200190815260200160002060000160006101000a81548173ffffffffffffffffffffffffffffffffffffffff021916908373ffffffffffffffffffffffffffffffffffffffff1602179055503373ffffffffffffffffffffffffffffffffffffffff167f9670c39169801a5bd741ed6ff7520056350cd07e68b01113c12c2472e59293b060405160405180910390a250565b33600560008273ffffffffffffffffffffffffffffffffffffffff1673ffffffffffffffffffffffffffffffffffffffff16815260200190815260200160002060009054906101000a900460ff16610973576006819080600181540180825580915050600190039060005260206000200160009091909190916101000a81548173ffffffffffffffffffffffffffffffffffffffff021916908373ffffffffffffffffffffffffffffffffffffffff1602179055506001600560008373ffffffffffffffffffffffffffffffffffffffff1673ffffffffffffffffffffffffffffffffffffffff16815260200190815260200160002060006101000a81548160ff021916908315150217905550610a01565b600560008273ffffffffffffffffffffffffffffffffffffffff1673ffffffffffffffffffffffffffffffffffffffff16815260200190815260200160002060009054906101000a900460ff1615610a00576040517f08c379a00000000000000000000000000000000000000000000000000000000081526004016109f790613229565b60405180910390fd5b5b33600460003373ffffffffffffffffffffffffffffffffffffffff1673ffffffffffffffffffffffffffffffffffffffff16815260200190815260200160002060000160006101000a81548173ffffffffffffffffffffffffffffffffffffffff021916908373ffffffffffffffffffffffffffffffffffffffff1602179055503373ffffffffffffffffffffffffffffffffffffffff167f4f27fe946eaabba7ccf27dfe0b9e64d96e44d7001dc0c23908697f0a3839006a60405160405180910390a250565b610ad0612664565b600782604051610ae09190613285565b908152602001604051809103902060405180610120016040529081600082018054610b0a906132cb565b80601f0160208091040260200160405190810160405280929190818152602001828054610b36906132cb565b8015610b835780601f10610b5857610100808354040283529160200191610b83565b820191906000526020600020905b815481529060010190602001808311610b6657829003601f168201915b50505050508152602001600182018054610b9c906132cb565b80601f0160208091040260200160405190810160405280929190818152602001828054610bc8906132cb565b8015610c155780601f10610bea57610100808354040283529160200191610c15565b820191906000526020600020905b815481529060010190602001808311610bf857829003601f168201915b50505050508152602001600282018054610c2e906132cb565b80601f0160208091040260200160405190810160405280929190818152602001828054610c5a906132cb565b8015610ca75780601f10610c7c57610100808354040283529160200191610ca7565b820191906000526020600020905b815481529060010190602001808311610c8a57829003601f168201915b505050505081526020016003820160009054906101000a900473ffffffffffffffffffffffffffffffffffffffff1673ffffffffffffffffffffffffffffffffffffffff1673ffffffffffffffffffffffffffffffffffffffff1681526020016004820160009054906101000a900473ffffffffffffffffffffffffffffffffffffffff1673ffffffffffffffffffffffffffffffffffffffff1673ffffffffffffffffffffffffffffffffffffffff16815260200160058201604051806060016040529081600082018054610d7c906132cb565b80601f0160208091040260200160405190810160405280929190818152602001828054610da8906132cb565b8015610df55780601f10610dca57610100808354040283529160200191610df5565b820191906000526020600020905b815481529060010190602001808311610dd857829003601f168201915b50505050508152602001600182018054610e0e906132cb565b80601f0160208091040260200160405190810160405280929190818152602001828054610e3a906132cb565b8015610e875780601f10610e5c57610100808354040283529160200191610e87565b820191906000526020600020905b815481529060010190602001808311610e6a57829003601f168201915b50505050508152602001600282018054610ea0906132cb565b80601f0160208091040260200160405190810160405280929190818152602001828054610ecc906132cb565b8015610f195780601f10610eee57610100808354040283529160200191610f19565b820191906000526020600020905b815481529060010190602001808311610efc57829003601f168201915b505050505081525050815260200160088201604051806060016040529081600082018054610f46906132cb565b80601f0160208091040260200160405190810160405280929190818152602001828054610f72906132cb565b8015610fbf5780601f10610f9457610100808354040283529160200191610fbf565b820191906000526020600020905b815481529060010190602001808311610fa257829003601f168201915b50505050508152602001600182018054610fd8906132cb565b80601f0160208091040260200160405190810160405280929190818152602001828054611004906132cb565b80156110515780601f1061102657610100808354040283529160200191611051565b820191906000526020600020905b81548152906001019060200180831161103457829003601f168201915b5050505050815260200160028201805461106a906132cb565b80601f0160208091040260200160405190810160405280929190818152602001828054611096906132cb565b80156110e35780601f106110b8576101008083540402835291602001916110e3565b820191906000526020600020905b8154815290600101906020018083116110c657829003601f168201915b5050505050815250508152602001600b8201548152602001600c8201805461110a906132cb565b80601f0160208091040260200160405190810160405280929190818152602001828054611136906132cb565b80156111835780601f1061115857610100808354040283529160200191611183565b820191906000526020600020905b81548152906001019060200180831161116657829003601f168201915b5050505050815250509050919050565b600460008373ffffffffffffffffffffffffffffffffffffffff1673ffffffffffffffffffffffffffffffffffffffff1681526020019081526020016000206001018190806001815401808255809150506001900390600052602060002001600090919091909150908051906020019061120e9291906126e8565b505050565b60008273ffffffffffffffffffffffffffffffffffffffff16826040516112399061332e565b60006040518083038185875af1925050503d8060008114611276576040519150601f19603f3d011682016040523d82523d6000602084013e61127b565b606091505b50509050806112bf576040517f08c379a00000000000000000000000000000000000000000000000000000000081526004016112b69061338f565b60405180910390fd5b505050565b600047905090565b600981815481106112dc57600080fd5b9060005260206000200160009150905080546112f7906132cb565b80601f0160208091040260200160405190810160405280929190818152602001828054611323906132cb565b80156113705780601f1061134557610100808354040283529160200191611370565b820191906000526020600020905b81548152906001019060200180831161135357829003601f168201915b505050505081565b600080600160008473ffffffffffffffffffffffffffffffffffffffff1673ffffffffffffffffffffffffffffffffffffffff168152602001908152602001600020600101805490509050600160008473ffffffffffffffffffffffffffffffffffffffff1673ffffffffffffffffffffffffffffffffffffffff16815260200190815260200160002060010160018261141291906133de565b8154811061142357611422613412565b5b906000526020600020016000611439919061276e565b6001915050919050565b6008818051602081018201805184825260208301602085012081835280955050505050506000915054906101000a900460ff1681565b60026020528060005260406000206000915054906101000a900460ff1681565b600a5434146114dd576040517f08c379a00000000000000000000000000000000000000000000000000000000081526004016114d49061348d565b60405180910390fd5b565b600160008373ffffffffffffffffffffffffffffffffffffffff1673ffffffffffffffffffffffffffffffffffffffff1681526020019081526020016000206001018190806001815401808255809150506001900390600052602060002001600090919091909150908051906020019061155a9291906126e8565b505050565b60056020528060005260406000206000915054906101000a900460ff1681565b8a6008816040516115909190613285565b908152602001604051809103902060009054906101000a900460ff16611628576009819080600181540180825580915050600190039060005260206000200160009091909190915090805190602001906115eb9291906126e8565b5060016008826040516115fe9190613285565b908152602001604051809103902060006101000a81548160ff021916908315150217905550611695565b6008816040516116389190613285565b908152602001604051809103902060009054906101000a900460ff1615611694576040517f08c379a000000000000000000000000000000000000000000000000000000000815260040161168b906134f9565b60405180910390fd5b5b8b60078d6040516116a69190613285565b908152602001604051809103902060000190805190602001906116ca9291906126e8565b508a60078d6040516116dc9190613285565b908152602001604051809103902060050160000190805190602001906117039291906126e8565b508960078d6040516117159190613285565b9081526020016040518091039020600501600101908051906020019061173c9291906126e8565b508860078d60405161174e9190613285565b908152602001604051809103902060080160000190805190602001906117759291906126e8565b508760078d6040516117879190613285565b908152602001604051809103902060080160010190805190602001906117ae9291906126e8565b508660078d6040516117c09190613285565b908152602001604051809103902060010190805190602001906117e49291906126e8565b508560078d6040516117f69190613285565b9081526020016040518091039020600201908051906020019061181a9291906126e8565b508260078d60405161182c9190613285565b9081526020016040518091039020600b01819055508460078d6040516118529190613285565b908152602001604051809103902060030160006101000a81548173ffffffffffffffffffffffffffffffffffffffff021916908373ffffffffffffffffffffffffffffffffffffffff1602179055508360078d6040516118b29190613285565b908152602001604051809103902060040160006101000a81548173ffffffffffffffffffffffffffffffffffffffff021916908373ffffffffffffffffffffffffffffffffffffffff1602179055506064600a846119109190613519565b61191a91906135a2565b600a819055508160078d6040516119319190613285565b9081526020016040518091039020600c0190805190602001906119559291906126e8565b50505050505050505050505050565b60008054906101000a900473ffffffffffffffffffffffffffffffffffffffff1681565b6007816040516119989190613285565b9081526020016040518091039020600b0154600a546119b791906135d3565b34146119f8576040517f08c379a00000000000000000000000000000000000000000000000000000000081526004016119ef90613675565b60405180910390fd5b50565b6000600782604051611a0d9190613285565b908152602001604051809103902060030160009054906101000a900473ffffffffffffffffffffffffffffffffffffffff1673ffffffffffffffffffffffffffffffffffffffff16600a54600784604051611a689190613285565b9081526020016040518091039020600b0154611a8491906135d3565b604051611a909061332e565b60006040518083038185875af1925050503d8060008114611acd576040519150601f19603f3d011682016040523d82523d6000602084013e611ad2565b606091505b5050905080611b16576040517f08c379a0000000000000000000000000000000000000000000000000000000008152600401611b0d9061338f565b60405180910390fd5b5050565b600781805160208101820180518482526020830160208501208183528095505050505050600091509050806000018054611b53906132cb565b80601f0160208091040260200160405190810160405280929190818152602001828054611b7f906132cb565b8015611bcc5780601f10611ba157610100808354040283529160200191611bcc565b820191906000526020600020905b815481529060010190602001808311611baf57829003601f168201915b505050505090806001018054611be1906132cb565b80601f0160208091040260200160405190810160405280929190818152602001828054611c0d906132cb565b8015611c5a5780601f10611c2f57610100808354040283529160200191611c5a565b820191906000526020600020905b815481529060010190602001808311611c3d57829003601f168201915b505050505090806002018054611c6f906132cb565b80601f0160208091040260200160405190810160405280929190818152602001828054611c9b906132cb565b8015611ce85780601f10611cbd57610100808354040283529160200191611ce8565b820191906000526020600020905b815481529060010190602001808311611ccb57829003601f168201915b5050505050908060030160009054906101000a900473ffffffffffffffffffffffffffffffffffffffff16908060040160009054906101000a900473ffffffffffffffffffffffffffffffffffffffff169080600501604051806060016040529081600082018054611d59906132cb565b80601f0160208091040260200160405190810160405280929190818152602001828054611d85906132cb565b8015611dd25780601f10611da757610100808354040283529160200191611dd2565b820191906000526020600020905b815481529060010190602001808311611db557829003601f168201915b50505050508152602001600182018054611deb906132cb565b80601f0160208091040260200160405190810160405280929190818152602001828054611e17906132cb565b8015611e645780601f10611e3957610100808354040283529160200191611e64565b820191906000526020600020905b815481529060010190602001808311611e4757829003601f168201915b50505050508152602001600282018054611e7d906132cb565b80601f0160208091040260200160405190810160405280929190818152602001828054611ea9906132cb565b8015611ef65780601f10611ecb57610100808354040283529160200191611ef6565b820191906000526020600020905b815481529060010190602001808311611ed957829003601f168201915b5050505050815250509080600801604051806060016040529081600082018054611f1f906132cb565b80601f0160208091040260200160405190810160405280929190818152602001828054611f4b906132cb565b8015611f985780601f10611f6d57610100808354040283529160200191611f98565b820191906000526020600020905b815481529060010190602001808311611f7b57829003601f168201915b50505050508152602001600182018054611fb1906132cb565b80601f0160208091040260200160405190810160405280929190818152602001828054611fdd906132cb565b801561202a5780601f10611fff5761010080835404028352916020019161202a565b820191906000526020600020905b81548152906001019060200180831161200d57829003601f168201915b50505050508152602001600282018054612043906132cb565b80601f016020809104026020016040519081016040528092919081815260200182805461206f906132cb565b80156120bc5780601f10612091576101008083540402835291602001916120bc565b820191906000526020600020905b81548152906001019060200180831161209f57829003601f168201915b5050505050815250509080600b01549080600c0180546120db906132cb565b80601f0160208091040260200160405190810160405280929190818152602001828054612107906132cb565b80156121545780601f1061212957610100808354040283529160200191612154565b820191906000526020600020905b81548152906001019060200180831161213757829003601f168201915b5050505050905089565b60006007826040516121709190613285565b908152602001604051809103902060040160009054906101000a900473ffffffffffffffffffffffffffffffffffffffff1673ffffffffffffffffffffffffffffffffffffffff16600a546040516121c79061332e565b60006040518083038185875af1925050503d8060008114612204576040519150601f19603f3d011682016040523d82523d6000602084013e612209565b606091505b505090508061224d576040517f08c379a00000000000000000000000000000000000000000000000000000000081526004016122449061338f565b60405180910390fd5b600060078360405161225f9190613285565b908152602001604051809103902060030160009054906101000a900473ffffffffffffffffffffffffffffffffffffffff1673ffffffffffffffffffffffffffffffffffffffff16600a546007856040516122ba9190613285565b9081526020016040518091039020600b01546122d691906133de565b6040516122e29061332e565b60006040518083038185875af1925050503d806000811461231f576040519150601f19603f3d011682016040523d82523d6000602084013e612324565b606091505b5050905080612368576040517f08c379a000000000000000000000000000000000000000000000000000000000815260040161235f9061338f565b60405180910390fd5b505050565b6003818154811061237d57600080fd5b906000526020600020016000915054906101000a900473ffffffffffffffffffffffffffffffffffffffff1681565b60046020528060005260406000206000915090508060000160009054906101000a900473ffffffffffffffffffffffffffffffffffffffff16905081565b60646007826040516123fc9190613285565b9081526020016040518091039020600b0154600f61241a9190613519565b61242491906135a2565b600b81905550600060078260405161243c9190613285565b908152602001604051809103902060040160009054906101000a900473ffffffffffffffffffffffffffffffffffffffff1673ffffffffffffffffffffffffffffffffffffffff16600b54600a5460078560405161249a9190613285565b9081526020016040518091039020600b01546124b691906135d3565b6124c091906133de565b6040516124cc9061332e565b60006040518083038185875af1925050503d8060008114612509576040519150601f19603f3d011682016040523d82523d6000602084013e61250e565b606091505b5050905080612552576040517f08c379a00000000000000000000000000000000000000000000000000000000081526004016125499061338f565b60405180910390fd5b60008060009054906101000a900473ffffffffffffffffffffffffffffffffffffffff1673ffffffffffffffffffffffffffffffffffffffff16600b5460405161259b9061332e565b60006040518083038185875af1925050503d80600081146125d8576040519150601f19603f3d011682016040523d82523d6000602084013e6125dd565b606091505b5050905080612621576040517f08c379a00000000000000000000000000000000000000000000000000000000081526004016126189061338f565b60405180910390fd5b505050565b60016020528060005260406000206000915090508060000160009054906101000a900473ffffffffffffffffffffffffffffffffffffffff16905081565b604051806101200160405280606081526020016060815260200160608152602001600073ffffffffffffffffffffffffffffffffffffffff168152602001600073ffffffffffffffffffffffffffffffffffffffff1681526020016126c76127ae565b81526020016126d46127ae565b815260200160008152602001606081525090565b8280546126f4906132cb565b90600052602060002090601f016020900481019282612716576000855561275d565b82601f1061272f57805160ff191683800117855561275d565b8280016001018555821561275d579182015b8281111561275c578251825591602001919060010190612741565b5b50905061276a91906127cf565b5090565b50805461277a906132cb565b6000825580601f1061278c57506127ab565b601f0160209004906000526020600020908101906127aa91906127cf565b5b50565b60405180606001604052806060815260200160608152602001606081525090565b5b808211156127e85760008160009055506001016127d0565b5090565b6000604051905090565b600080fd5b600080fd5b6000819050919050565b61281381612800565b811461281e57600080fd5b50565b6000813590506128308161280a565b92915050565b60006020828403121561284c5761284b6127f6565b5b600061285a84828501612821565b91505092915050565b600073ffffffffffffffffffffffffffffffffffffffff82169050919050565b600061288e82612863565b9050919050565b61289e81612883565b82525050565b60006020820190506128b96000830184612895565b92915050565b600080fd5b600080fd5b6000601f19601f8301169050919050565b7f4e487b7100000000000000000000000000000000000000000000000000000000600052604160045260246000fd5b612912826128c9565b810181811067ffffffffffffffff82111715612931576129306128da565b5b80604052505050565b60006129446127ec565b90506129508282612909565b919050565b600067ffffffffffffffff8211156129705761296f6128da565b5b612979826128c9565b9050602081019050919050565b82818337600083830152505050565b60006129a86129a384612955565b61293a565b9050828152602081018484840111156129c4576129c36128c4565b5b6129cf848285612986565b509392505050565b600082601f8301126129ec576129eb6128bf565b5b81356129fc848260208601612995565b91505092915050565b600060208284031215612a1b57612a1a6127f6565b5b600082013567ffffffffffffffff811115612a3957612a386127fb565b5b612a45848285016129d7565b91505092915050565b600081519050919050565b600082825260208201905092915050565b60005b83811015612a88578082015181840152602081019050612a6d565b83811115612a97576000848401525b50505050565b6000612aa882612a4e565b612ab28185612a59565b9350612ac2818560208601612a6a565b612acb816128c9565b840191505092915050565b612adf81612883565b82525050565b60006060830160008301518482036000860152612b028282612a9d565b91505060208301518482036020860152612b1c8282612a9d565b91505060408301518482036040860152612b368282612a9d565b9150508091505092915050565b612b4c81612800565b82525050565b6000610120830160008301518482036000860152612b708282612a9d565b91505060208301518482036020860152612b8a8282612a9d565b91505060408301518482036040860152612ba48282612a9d565b9150506060830151612bb96060860182612ad6565b506080830151612bcc6080860182612ad6565b5060a083015184820360a0860152612be48282612ae5565b91505060c083015184820360c0860152612bfe8282612ae5565b91505060e0830151612c1360e0860182612b43565b50610100830151848203610100860152612c2d8282612a9d565b9150508091505092915050565b60006020820190508181036000830152612c548184612b52565b905092915050565b612c6581612883565b8114612c7057600080fd5b50565b600081359050612c8281612c5c565b92915050565b60008060408385031215612c9f57612c9e6127f6565b5b6000612cad85828601612c73565b925050602083013567ffffffffffffffff811115612cce57612ccd6127fb565b5b612cda858286016129d7565b9150509250929050565b60008060408385031215612cfb57612cfa6127f6565b5b6000612d0985828601612c73565b9250506020612d1a85828601612821565b9150509250929050565b612d2d81612800565b82525050565b6000602082019050612d486000830184612d24565b92915050565b600082825260208201905092915050565b6000612d6a82612a4e565b612d748185612d4e565b9350612d84818560208601612a6a565b612d8d816128c9565b840191505092915050565b60006020820190508181036000830152612db28184612d5f565b905092915050565b600060208284031215612dd057612dcf6127f6565b5b6000612dde84828501612c73565b91505092915050565b60008115159050919050565b612dfc81612de7565b82525050565b6000602082019050612e176000830184612df3565b92915050565b6000612e2882612863565b9050919050565b612e3881612e1d565b8114612e4357600080fd5b50565b600081359050612e5581612e2f565b92915050565b600060208284031215612e7157612e706127f6565b5b6000612e7f84828501612e46565b91505092915050565b60008060008060008060008060008060006101608c8e031215612eae57612ead6127f6565b5b60008c013567ffffffffffffffff811115612ecc57612ecb6127fb565b5b612ed88e828f016129d7565b9b505060208c013567ffffffffffffffff811115612ef957612ef86127fb565b5b612f058e828f016129d7565b9a505060408c013567ffffffffffffffff811115612f2657612f256127fb565b5b612f328e828f016129d7565b99505060608c013567ffffffffffffffff811115612f5357612f526127fb565b5b612f5f8e828f016129d7565b98505060808c013567ffffffffffffffff811115612f8057612f7f6127fb565b5b612f8c8e828f016129d7565b97505060a08c013567ffffffffffffffff811115612fad57612fac6127fb565b5b612fb98e828f016129d7565b96505060c08c013567ffffffffffffffff811115612fda57612fd96127fb565b5b612fe68e828f016129d7565b95505060e0612ff78e828f01612c73565b9450506101006130098e828f01612c73565b93505061012061301b8e828f01612821565b9250506101408c013567ffffffffffffffff81111561303d5761303c6127fb565b5b6130498e828f016129d7565b9150509295989b509295989b9093969950565b600060608301600083015184820360008601526130798282612a9d565b915050602083015184820360208601526130938282612a9d565b915050604083015184820360408601526130ad8282612a9d565b9150508091505092915050565b60006101208201905081810360008301526130d5818c612d5f565b905081810360208301526130e9818b612d5f565b905081810360408301526130fd818a612d5f565b905061310c6060830189612895565b6131196080830188612895565b81810360a083015261312b818761305c565b905081810360c083015261313f818661305c565b905061314e60e0830185612d24565b8181036101008301526131618184612d5f565b90509a9950505050505050505050565b7f50617373656e67657220616c7265616479206578697374000000000000000000600082015250565b60006131a7601783612d4e565b91506131b282613171565b602082019050919050565b600060208201905081810360008301526131d68161319a565b9050919050565b7f44726976657220616c7265616479206578697374000000000000000000000000600082015250565b6000613213601483612d4e565b915061321e826131dd565b602082019050919050565b6000602082019050818103600083015261324281613206565b9050919050565b600081905092915050565b600061325f82612a4e565b6132698185613249565b9350613279818560208601612a6a565b80840191505092915050565b60006132918284613254565b915081905092915050565b7f4e487b7100000000000000000000000000000000000000000000000000000000600052602260045260246000fd5b600060028204905060018216806132e357607f821691505b602082108114156132f7576132f661329c565b5b50919050565b600081905092915050565b50565b60006133186000836132fd565b915061332382613308565b600082019050919050565b60006133398261330b565b9150819050919050565b7f63616c6c206661696c6564000000000000000000000000000000000000000000600082015250565b6000613379600b83612d4e565b915061338482613343565b602082019050919050565b600060208201905081810360008301526133a88161336c565b9050919050565b7f4e487b7100000000000000000000000000000000000000000000000000000000600052601160045260246000fd5b60006133e982612800565b91506133f483612800565b925082821015613407576134066133af565b5b828203905092915050565b7f4e487b7100000000000000000000000000000000000000000000000000000000600052603260045260246000fd5b7f536f6d65206572726f72206f6363757272656421000000000000000000000000600082015250565b6000613477601483612d4e565b915061348282613441565b602082019050919050565b600060208201905081810360008301526134a68161346a565b9050919050565b7f5269646520496420616c72656164792065786973740000000000000000000000600082015250565b60006134e3601583612d4e565b91506134ee826134ad565b602082019050919050565b60006020820190508181036000830152613512816134d6565b9050919050565b600061352482612800565b915061352f83612800565b9250817fffffffffffffffffffffffffffffffffffffffffffffffffffffffffffffffff0483118215151615613568576135676133af565b5b828202905092915050565b7f4e487b7100000000000000000000000000000000000000000000000000000000600052601260045260246000fd5b60006135ad82612800565b91506135b883612800565b9250826135c8576135c7613573565b5b828204905092915050565b60006135de82612800565b91506135e983612800565b9250827fffffffffffffffffffffffffffffffffffffffffffffffffffffffffffffffff0382111561361e5761361d6133af565b5b828201905092915050565b7f536f6d65206572726f72206f6363757272656421212100000000000000000000600082015250565b600061365f601683612d4e565b915061366a82613629565b602082019050919050565b6000602082019050818103600083015261368e81613652565b905091905056fea26469706673582212207d3c1f1a165724586b5204d09532dd51968e1fd172818f7d0d4829442a4b1f4864736f6c63430008090033",
  "linkReferences": {},
  "deployedLinkReferences": {}
}