{
  "_format": "hh-sol-artifact-1",
  "contractName": "Ride",
  "sourceName": "contracts/Ride.sol",
  "abi": [
    {
      "inputs": [
        {
          "internalType": "address payable",
          "name": "_passengerAddr",
          "type": "address"
        },
        {
          "internalType": "address payable",
          "name": "_driverAddr",
          "type": "address"
        },
        {
          "internalType": "string",
          "name": "_pickupLocation_longitude",
          "type": "string"
        },
        {
          "internalType": "string",
          "name": "_pickupLocation_latitude",
          "type": "string"
        },
        {
          "internalType": "string",
          "name": "_dropLocation_longitude",
          "type": "string"
        },
        {
          "internalType": "string",
          "name": "_dropLocation_latitude",
          "type": "string"
        },
        {
          "internalType": "uint256",
          "name": "_rideCost",
          "type": "uint256"
        }
      ],
      "stateMutability": "nonpayable",
      "type": "constructor"
    },
    {
      "anonymous": false,
      "inputs": [
        {
          "indexed": true,
          "internalType": "address payable",
          "name": "_driverAddr",
          "type": "address"
        },
        {
          "indexed": true,
          "internalType": "address payable",
          "name": "_passengerAddr",
          "type": "address"
        }
      ],
      "name": "UpdateConfirmationEvent",
      "type": "event"
    },
    {
      "inputs": [
        {
          "internalType": "uint256",
          "name": "_codePIN",
          "type": "uint256"
        }
      ],
      "name": "driverArrivation",
      "outputs": [],
      "stateMutability": "payable",
      "type": "function"
    },
    {
      "inputs": [],
      "name": "driverPunishment",
      "outputs": [],
      "stateMutability": "nonpayable",
      "type": "function"
    },
    {
      "inputs": [],
      "name": "getRideInfo",
      "outputs": [
        {
          "internalType": "address",
          "name": "",
          "type": "address"
        },
        {
          "internalType": "address",
          "name": "",
          "type": "address"
        },
        {
          "components": [
            {
              "internalType": "string",
              "name": "longitude",
              "type": "string"
            },
            {
              "internalType": "string",
              "name": "latitude",
              "type": "string"
            }
          ],
          "internalType": "struct Ride.Location",
          "name": "",
          "type": "tuple"
        },
        {
          "components": [
            {
              "internalType": "string",
              "name": "longitude",
              "type": "string"
            },
            {
              "internalType": "string",
              "name": "latitude",
              "type": "string"
            }
          ],
          "internalType": "struct Ride.Location",
          "name": "",
          "type": "tuple"
        },
        {
          "internalType": "uint256",
          "name": "",
          "type": "uint256"
        },
        {
          "internalType": "uint256",
          "name": "",
          "type": "uint256"
        },
        {
          "internalType": "uint256",
          "name": "",
          "type": "uint256"
        },
        {
          "internalType": "bool",
          "name": "",
          "type": "bool"
        },
        {
          "internalType": "bool",
          "name": "",
          "type": "bool"
        },
        {
          "internalType": "bool",
          "name": "",
          "type": "bool"
        }
      ],
      "stateMutability": "view",
      "type": "function"
    },
    {
      "inputs": [],
      "name": "passengerPunishment",
      "outputs": [],
      "stateMutability": "nonpayable",
      "type": "function"
    },
    {
      "inputs": [
        {
          "internalType": "address payable",
          "name": "_driverAddr",
          "type": "address"
        }
      ],
      "name": "updateDriverAddress",
      "outputs": [],
      "stateMutability": "nonpayable",
      "type": "function"
    },
    {
      "inputs": [
        {
          "internalType": "bool",
          "name": "_status",
          "type": "bool"
        }
      ],
      "name": "updateDriverConfirmation",
      "outputs": [],
      "stateMutability": "payable",
      "type": "function"
    },
    {
      "inputs": [
        {
          "internalType": "bool",
          "name": "_status",
          "type": "bool"
        }
      ],
      "name": "updatePassengerConfirmation",
      "outputs": [],
      "stateMutability": "payable",
      "type": "function"
    },
    {
      "inputs": [
        {
          "internalType": "bool",
          "name": "_complete",
          "type": "bool"
        }
      ],
      "name": "updateRideComplete",
      "outputs": [],
      "stateMutability": "payable",
      "type": "function"
    }
  ],
  "bytecode": "0x60806040523480156200001157600080fd5b50604051620018613803806200186183398181016040528101906200003791906200048a565b866000806101000a81548173ffffffffffffffffffffffffffffffffffffffff021916908373ffffffffffffffffffffffffffffffffffffffff16021790555085600160006101000a81548173ffffffffffffffffffffffffffffffffffffffff021916908373ffffffffffffffffffffffffffffffffffffffff1602179055508460026000019080519060200190620000d39291906200019d565b508360026001019080519060200190620000ef9291906200019d565b5082600460000190805190602001906200010b9291906200019d565b508160046001019080519060200190620001279291906200019d565b5060006007819055506000600881905550806009819055506000600660006101000a81548160ff0219169083151502179055506000600660016101000a81548160ff0219169083151502179055506000600660026101000a81548160ff021916908315150217905550505050505050506200061e565b828054620001ab90620005e8565b90600052602060002090601f016020900481019282620001cf57600085556200021b565b82601f10620001ea57805160ff19168380011785556200021b565b828001600101855582156200021b579182015b828111156200021a578251825591602001919060010190620001fd565b5b5090506200022a91906200022e565b5090565b5b80821115620002495760008160009055506001016200022f565b5090565b6000604051905090565b600080fd5b600080fd5b600073ffffffffffffffffffffffffffffffffffffffff82169050919050565b60006200028e8262000261565b9050919050565b620002a08162000281565b8114620002ac57600080fd5b50565b600081519050620002c08162000295565b92915050565b600080fd5b600080fd5b6000601f19601f8301169050919050565b7f4e487b7100000000000000000000000000000000000000000000000000000000600052604160045260246000fd5b6200031b82620002d0565b810181811067ffffffffffffffff821117156200033d576200033c620002e1565b5b80604052505050565b6000620003526200024d565b905062000360828262000310565b919050565b600067ffffffffffffffff821115620003835762000382620002e1565b5b6200038e82620002d0565b9050602081019050919050565b60005b83811015620003bb5780820151818401526020810190506200039e565b83811115620003cb576000848401525b50505050565b6000620003e8620003e28462000365565b62000346565b905082815260208101848484011115620004075762000406620002cb565b5b620004148482856200039b565b509392505050565b600082601f830112620004345762000433620002c6565b5b815162000446848260208601620003d1565b91505092915050565b6000819050919050565b62000464816200044f565b81146200047057600080fd5b50565b600081519050620004848162000459565b92915050565b600080600080600080600060e0888a031215620004ac57620004ab62000257565b5b6000620004bc8a828b01620002af565b9750506020620004cf8a828b01620002af565b965050604088015167ffffffffffffffff811115620004f357620004f26200025c565b5b620005018a828b016200041c565b955050606088015167ffffffffffffffff8111156200052557620005246200025c565b5b620005338a828b016200041c565b945050608088015167ffffffffffffffff8111156200055757620005566200025c565b5b620005658a828b016200041c565b93505060a088015167ffffffffffffffff8111156200058957620005886200025c565b5b620005978a828b016200041c565b92505060c0620005aa8a828b0162000473565b91505092959891949750929550565b7f4e487b7100000000000000000000000000000000000000000000000000000000600052602260045260246000fd5b600060028204905060018216806200060157607f821691505b60208210811415620006185762000617620005b9565b5b50919050565b611233806200062e6000396000f3fe60806040526004361061007b5760003560e01c8063530cce551161004e578063530cce55146101035780636d6ff76c1461012c57806377f9c063146101485780639cc9d7401461015f5761007b565b806306ab2e0614610080578063114dba9c1461009c5780633d377a30146100d0578063415f3dc3146100e7575b600080fd5b61009a60048036038101906100959190610c14565b61017b565b005b3480156100a857600080fd5b506100b16101ee565b6040516100c79a99989796959493929190610d87565b60405180910390f35b3480156100dc57600080fd5b506100e5610518565b005b61010160048036038101906100fc9190610c14565b61062a565b005b34801561010f57600080fd5b5061012a60048036038101906101259190610e6f565b6106b6565b005b61014660048036038101906101419190610c14565b610774565b005b34801561015457600080fd5b5061015d6107ee565b005b61017960048036038101906101749190610ec8565b6108c1565b005b801515600660009054906101000a900460ff16151514156101d1576040517f08c379a00000000000000000000000000000000000000000000000000000000081526004016101c890610f52565b60405180910390fd5b80600660006101000a81548160ff02191690831515021790555050565b6000806101f9610bbd565b610201610bbd565b60008060008060008061021347610afb565b60008054906101000a900473ffffffffffffffffffffffffffffffffffffffff16600160009054906101000a900473ffffffffffffffffffffffffffffffffffffffff1660026004600754600854600954600660009054906101000a900460ff16600660019054906101000a900460ff16600660029054906101000a900460ff16876040518060400160405290816000820180546102b090610fa1565b80601f01602080910402602001604051908101604052809291908181526020018280546102dc90610fa1565b80156103295780601f106102fe57610100808354040283529160200191610329565b820191906000526020600020905b81548152906001019060200180831161030c57829003601f168201915b5050505050815260200160018201805461034290610fa1565b80601f016020809104026020016040519081016040528092919081815260200182805461036e90610fa1565b80156103bb5780601f10610390576101008083540402835291602001916103bb565b820191906000526020600020905b81548152906001019060200180831161039e57829003601f168201915b5050505050815250509750866040518060400160405290816000820180546103e290610fa1565b80601f016020809104026020016040519081016040528092919081815260200182805461040e90610fa1565b801561045b5780601f106104305761010080835404028352916020019161045b565b820191906000526020600020905b81548152906001019060200180831161043e57829003601f168201915b5050505050815260200160018201805461047490610fa1565b80601f01602080910402602001604051908101604052809291908181526020018280546104a090610fa1565b80156104ed5780601f106104c2576101008083540402835291602001916104ed565b820191906000526020600020905b8154815290600101906020018083116104d057829003601f168201915b5050505050815250509650995099509950995099509950995099509950995090919293949596979899565b61055860008054906101000a900473ffffffffffffffffffffffffffffffffffffffff1673ffffffffffffffffffffffffffffffffffffffff1631610afb565b60008060009054906101000a900473ffffffffffffffffffffffffffffffffffffffff1673ffffffffffffffffffffffffffffffffffffffff166008546040516105a190611004565b60006040518083038185875af1925050503d80600081146105de576040519150601f19603f3d011682016040523d82523d6000602084013e6105e3565b606091505b5050905080610627576040517f08c379a000000000000000000000000000000000000000000000000000000000815260040161061e90611065565b60405180910390fd5b50565b801515600660029054906101000a900460ff1615151415610680576040517f08c379a000000000000000000000000000000000000000000000000000000000815260040161067790610f52565b60405180910390fd5b80600660026101000a81548160ff02191690831515021790555034600860008282546106ac91906110b4565b9250508190555050565b80600160006101000a81548173ffffffffffffffffffffffffffffffffffffffff021916908373ffffffffffffffffffffffffffffffffffffffff16021790555060008054906101000a900473ffffffffffffffffffffffffffffffffffffffff1673ffffffffffffffffffffffffffffffffffffffff168173ffffffffffffffffffffffffffffffffffffffff167f1fceffeeb023eb0adeba901d55c274290298e737e7e9b57ef93f9c86594b006460405160405180910390a350565b801515600660019054906101000a900460ff16151514156107ca576040517f08c379a00000000000000000000000000000000000000000000000000000000081526004016107c190610f52565b60405180910390fd5b80600660016101000a81548160ff0219169083151502179055503460078190555050565b6000600160009054906101000a900473ffffffffffffffffffffffffffffffffffffffff1673ffffffffffffffffffffffffffffffffffffffff1660075460405161083890611004565b60006040518083038185875af1925050503d8060008114610875576040519150601f19603f3d011682016040523d82523d6000602084013e61087a565b606091505b50509050806108be576040517f08c379a00000000000000000000000000000000000000000000000000000000081526004016108b590611065565b60405180910390fd5b50565b60008111610904576040517f08c379a00000000000000000000000000000000000000000000000000000000081526004016108fb90611156565b60405180910390fd5b60003411610947576040517f08c379a000000000000000000000000000000000000000000000000000000000815260040161093e906111c2565b60405180910390fd5b80600a8190555060008060009054906101000a900473ffffffffffffffffffffffffffffffffffffffff1673ffffffffffffffffffffffffffffffffffffffff1660075460405161099790611004565b60006040518083038185875af1925050503d80600081146109d4576040519150601f19603f3d011682016040523d82523d6000602084013e6109d9565b606091505b5050905080610a1d576040517f08c379a0000000000000000000000000000000000000000000000000000000008152600401610a1490611065565b60405180910390fd5b6000600160009054906101000a900473ffffffffffffffffffffffffffffffffffffffff1673ffffffffffffffffffffffffffffffffffffffff16600854604051610a6790611004565b60006040518083038185875af1925050503d8060008114610aa4576040519150601f19603f3d011682016040523d82523d6000602084013e610aa9565b606091505b5050905080610aed576040517f08c379a0000000000000000000000000000000000000000000000000000000008152600401610ae490611065565b60405180910390fd5b610af647610afb565b505050565b610b9181604051602401610b0f91906111e2565b6040516020818303038152906040527ff5b1bba9000000000000000000000000000000000000000000000000000000007bffffffffffffffffffffffffffffffffffffffffffffffffffffffff19166020820180517bffffffffffffffffffffffffffffffffffffffffffffffffffffffff8381831617835250505050610b94565b50565b60008151905060006a636f6e736f6c652e6c6f679050602083016000808483855afa5050505050565b604051806040016040528060608152602001606081525090565b600080fd5b60008115159050919050565b610bf181610bdc565b8114610bfc57600080fd5b50565b600081359050610c0e81610be8565b92915050565b600060208284031215610c2a57610c29610bd7565b5b6000610c3884828501610bff565b91505092915050565b600073ffffffffffffffffffffffffffffffffffffffff82169050919050565b6000610c6c82610c41565b9050919050565b610c7c81610c61565b82525050565b600081519050919050565b600082825260208201905092915050565b60005b83811015610cbc578082015181840152602081019050610ca1565b83811115610ccb576000848401525b50505050565b6000601f19601f8301169050919050565b6000610ced82610c82565b610cf78185610c8d565b9350610d07818560208601610c9e565b610d1081610cd1565b840191505092915050565b60006040830160008301518482036000860152610d388282610ce2565b91505060208301518482036020860152610d528282610ce2565b9150508091505092915050565b6000819050919050565b610d7281610d5f565b82525050565b610d8181610bdc565b82525050565b600061014082019050610d9d600083018d610c73565b610daa602083018c610c73565b8181036040830152610dbc818b610d1b565b90508181036060830152610dd0818a610d1b565b9050610ddf6080830189610d69565b610dec60a0830188610d69565b610df960c0830187610d69565b610e0660e0830186610d78565b610e14610100830185610d78565b610e22610120830184610d78565b9b9a5050505050505050505050565b6000610e3c82610c41565b9050919050565b610e4c81610e31565b8114610e5757600080fd5b50565b600081359050610e6981610e43565b92915050565b600060208284031215610e8557610e84610bd7565b5b6000610e9384828501610e5a565b91505092915050565b610ea581610d5f565b8114610eb057600080fd5b50565b600081359050610ec281610e9c565b92915050565b600060208284031215610ede57610edd610bd7565b5b6000610eec84828501610eb3565b91505092915050565b600082825260208201905092915050565b7f536f6d65206572726f72206f6363757272656421000000000000000000000000600082015250565b6000610f3c601483610ef5565b9150610f4782610f06565b602082019050919050565b60006020820190508181036000830152610f6b81610f2f565b9050919050565b7f4e487b7100000000000000000000000000000000000000000000000000000000600052602260045260246000fd5b60006002820490506001821680610fb957607f821691505b60208210811415610fcd57610fcc610f72565b5b50919050565b600081905092915050565b50565b6000610fee600083610fd3565b9150610ff982610fde565b600082019050919050565b600061100f82610fe1565b9150819050919050565b7f63616c6c206661696c6564000000000000000000000000000000000000000000600082015250565b600061104f600b83610ef5565b915061105a82611019565b602082019050919050565b6000602082019050818103600083015261107e81611042565b9050919050565b7f4e487b7100000000000000000000000000000000000000000000000000000000600052601160045260246000fd5b60006110bf82610d5f565b91506110ca83610d5f565b9250827fffffffffffffffffffffffffffffffffffffffffffffffffffffffffffffffff038211156110ff576110fe611085565b5b828201905092915050565b7f77726f6e6720636f64652050494e000000000000000000000000000000000000600082015250565b6000611140600e83610ef5565b915061114b8261110a565b602082019050919050565b6000602082019050818103600083015261116f81611133565b9050919050565b7f4e6f20457468657220666f756e64000000000000000000000000000000000000600082015250565b60006111ac600e83610ef5565b91506111b782611176565b602082019050919050565b600060208201905081810360008301526111db8161119f565b9050919050565b60006020820190506111f76000830184610d69565b9291505056fea26469706673582212204d939eb6a926041fc5ba85709ec249424ce523f55b6964d4403c53938c0a286064736f6c63430008090033",
  "linkReferences": {},
  "deployedLinkReferences": {}
}